{
  "_format": "hh-sol-artifact-1",
  "contractName": "CrowdFunding",
  "sourceName": "contracts/CrowdFunding.sol",
  "abi": [
    {
      "inputs": [
        {
          "internalType": "uint256",
          "name": "",
          "type": "uint256"
        }
      ],
      "name": "campaign",
      "outputs": [
        {
          "internalType": "address",
          "name": "owner",
          "type": "address"
        },
        {
          "internalType": "string",
          "name": "title",
          "type": "string"
        },
        {
          "internalType": "string",
          "name": "description",
          "type": "string"
        },
        {
          "internalType": "uint256",
          "name": "deadline",
          "type": "uint256"
        },
        {
          "internalType": "uint256",
          "name": "target",
          "type": "uint256"
        },
        {
          "internalType": "uint256",
          "name": "amountCollected",
          "type": "uint256"
        }
      ],
      "stateMutability": "view",
      "type": "function"
    },
    {
      "inputs": [
        {
          "internalType": "address",
          "name": "_owner",
          "type": "address"
        },
        {
          "internalType": "string",
          "name": "_title",
          "type": "string"
        },
        {
          "internalType": "string",
          "name": "_description",
          "type": "string"
        },
        {
          "internalType": "uint256",
          "name": "_target",
          "type": "uint256"
        },
        {
          "internalType": "uint256",
          "name": "_deadline",
          "type": "uint256"
        }
      ],
      "name": "createCampaign",
      "outputs": [
        {
          "internalType": "uint256",
          "name": "",
          "type": "uint256"
        }
      ],
      "stateMutability": "nonpayable",
      "type": "function"
    },
    {
      "inputs": [
        {
          "internalType": "uint256",
          "name": "_id",
          "type": "uint256"
        }
      ],
      "name": "donateToCampaign",
      "outputs": [],
      "stateMutability": "payable",
      "type": "function"
    },
    {
      "inputs": [],
      "name": "getCampaigns",
      "outputs": [
        {
          "components": [
            {
              "internalType": "address",
              "name": "owner",
              "type": "address"
            },
            {
              "internalType": "string",
              "name": "title",
              "type": "string"
            },
            {
              "internalType": "string",
              "name": "description",
              "type": "string"
            },
            {
              "internalType": "uint256",
              "name": "deadline",
              "type": "uint256"
            },
            {
              "internalType": "uint256",
              "name": "target",
              "type": "uint256"
            },
            {
              "internalType": "uint256",
              "name": "amountCollected",
              "type": "uint256"
            },
            {
              "internalType": "address[]",
              "name": "donators",
              "type": "address[]"
            },
            {
              "internalType": "uint256[]",
              "name": "donations",
              "type": "uint256[]"
            }
          ],
          "internalType": "struct CrowdFunding.Campaign[]",
          "name": "",
          "type": "tuple[]"
        }
      ],
      "stateMutability": "view",
      "type": "function"
    },
    {
      "inputs": [
        {
          "internalType": "uint256",
          "name": "_id",
          "type": "uint256"
        }
      ],
      "name": "getDonators",
      "outputs": [
        {
          "internalType": "address[]",
          "name": "",
          "type": "address[]"
        },
        {
          "internalType": "uint256[]",
          "name": "",
          "type": "uint256[]"
        }
      ],
      "stateMutability": "view",
      "type": "function"
    },
    {
      "inputs": [],
      "name": "numberOfCampaigns",
      "outputs": [
        {
          "internalType": "uint256",
          "name": "",
          "type": "uint256"
        }
      ],
      "stateMutability": "view",
      "type": "function"
    }
  ],
  "bytecode": "0x60806040526000600155348015601457600080fd5b5061178b806100246000396000f3fe6080604052600436106100555760003560e01c8063075843c31461005a57806307ca140d146100975780630fa91fa9146100c257806342a4fda814610100578063a6b036331461011c578063ccd3903714610147575b600080fd5b34801561006657600080fd5b50610081600480360381019061007c9190610c06565b610189565b60405161008e9190610cc8565b60405180910390f35b3480156100a357600080fd5b506100ac61029a565b6040516100b99190610cc8565b60405180910390f35b3480156100ce57600080fd5b506100e960048036038101906100e49190610ce3565b6102a0565b6040516100f7929190610e8c565b60405180910390f35b61011a60048036038101906101159190610ce3565b6103b0565b005b34801561012857600080fd5b50610131610513565b60405161013e91906111a7565b60405180910390f35b34801561015357600080fd5b5061016e60048036038101906101699190610ce3565b610851565b60405161018096959493929190611222565b60405180910390f35b60004282116101cd576040517f08c379a00000000000000000000000000000000000000000000000000000000081526004016101c490611303565b60405180910390fd5b600080600060015481526020019081526020016000209050868160000160006101000a81548173ffffffffffffffffffffffffffffffffffffffff021916908373ffffffffffffffffffffffffffffffffffffffff16021790555085816001019081610239919061152f565b508481600201908161024b919061152f565b50838160040181905550828160030181905550600081600501819055506001600081548092919061027b90611630565b91905055506001805461028e9190611678565b91505095945050505050565b60015481565b6060806000808481526020019081526020016000206006016000808581526020019081526020016000206007018180548060200260200160405190810160405280929190818152602001828054801561034e57602002820191906000526020600020905b8160009054906101000a900473ffffffffffffffffffffffffffffffffffffffff1673ffffffffffffffffffffffffffffffffffffffff1681526020019060010190808311610304575b50505050509150808054806020026020016040519081016040528092919081815260200182805480156103a057602002820191906000526020600020905b81548152602001906001019080831161038c575b5050505050905091509150915091565b60003490506000806000848152602001908152602001600020905080600601339080600181540180825580915050600190039060005260206000200160009091909190916101000a81548173ffffffffffffffffffffffffffffffffffffffff021916908373ffffffffffffffffffffffffffffffffffffffff1602179055508060070182908060018154018082558091505060019003906000526020600020016000909190919091505560008160000160009054906101000a900473ffffffffffffffffffffffffffffffffffffffff1673ffffffffffffffffffffffffffffffffffffffff16836040516104a5906116dd565b60006040518083038185875af1925050503d80600081146104e2576040519150601f19603f3d011682016040523d82523d6000602084013e6104e7565b606091505b50509050801561050d578282600501600082825461050591906116f2565b925050819055505b50505050565b6060600060015467ffffffffffffffff81111561053357610532610aa5565b5b60405190808252806020026020018201604052801561056c57816020015b6105596109bd565b8152602001906001900390816105515790505b50905060005b600154811015610849576000806000838152602001908152602001600020905080604051806101000160405290816000820160009054906101000a900473ffffffffffffffffffffffffffffffffffffffff1673ffffffffffffffffffffffffffffffffffffffff1673ffffffffffffffffffffffffffffffffffffffff16815260200160018201805461060590611352565b80601f016020809104026020016040519081016040528092919081815260200182805461063190611352565b801561067e5780601f106106535761010080835404028352916020019161067e565b820191906000526020600020905b81548152906001019060200180831161066157829003601f168201915b5050505050815260200160028201805461069790611352565b80601f01602080910402602001604051908101604052809291908181526020018280546106c390611352565b80156107105780601f106106e557610100808354040283529160200191610710565b820191906000526020600020905b8154815290600101906020018083116106f357829003601f168201915b50505050508152602001600382015481526020016004820154815260200160058201548152602001600682018054806020026020016040519081016040528092919081815260200182805480156107bc57602002820191906000526020600020905b8160009054906101000a900473ffffffffffffffffffffffffffffffffffffffff1673ffffffffffffffffffffffffffffffffffffffff1681526020019060010190808311610772575b505050505081526020016007820180548060200260200160405190810160405280929190818152602001828054801561081457602002820191906000526020600020905b815481526020019060010190808311610800575b5050505050815250508383815181106108305761082f611726565b5b6020026020010181905250508080600101915050610572565b508091505090565b60006020528060005260406000206000915090508060000160009054906101000a900473ffffffffffffffffffffffffffffffffffffffff169080600101805461089a90611352565b80601f01602080910402602001604051908101604052809291908181526020018280546108c690611352565b80156109135780601f106108e857610100808354040283529160200191610913565b820191906000526020600020905b8154815290600101906020018083116108f657829003601f168201915b50505050509080600201805461092890611352565b80601f016020809104026020016040519081016040528092919081815260200182805461095490611352565b80156109a15780601f10610976576101008083540402835291602001916109a1565b820191906000526020600020905b81548152906001019060200180831161098457829003601f168201915b5050505050908060030154908060040154908060050154905086565b604051806101000160405280600073ffffffffffffffffffffffffffffffffffffffff168152602001606081526020016060815260200160008152602001600081526020016000815260200160608152602001606081525090565b6000604051905090565b600080fd5b600080fd5b600073ffffffffffffffffffffffffffffffffffffffff82169050919050565b6000610a5782610a2c565b9050919050565b610a6781610a4c565b8114610a7257600080fd5b50565b600081359050610a8481610a5e565b92915050565b600080fd5b600080fd5b6000601f19601f8301169050919050565b7f4e487b7100000000000000000000000000000000000000000000000000000000600052604160045260246000fd5b610add82610a94565b810181811067ffffffffffffffff82111715610afc57610afb610aa5565b5b80604052505050565b6000610b0f610a18565b9050610b1b8282610ad4565b919050565b600067ffffffffffffffff821115610b3b57610b3a610aa5565b5b610b4482610a94565b9050602081019050919050565b82818337600083830152505050565b6000610b73610b6e84610b20565b610b05565b905082815260208101848484011115610b8f57610b8e610a8f565b5b610b9a848285610b51565b509392505050565b600082601f830112610bb757610bb6610a8a565b5b8135610bc7848260208601610b60565b91505092915050565b6000819050919050565b610be381610bd0565b8114610bee57600080fd5b50565b600081359050610c0081610bda565b92915050565b600080600080600060a08688031215610c2257610c21610a22565b5b6000610c3088828901610a75565b955050602086013567ffffffffffffffff811115610c5157610c50610a27565b5b610c5d88828901610ba2565b945050604086013567ffffffffffffffff811115610c7e57610c7d610a27565b5b610c8a88828901610ba2565b9350506060610c9b88828901610bf1565b9250506080610cac88828901610bf1565b9150509295509295909350565b610cc281610bd0565b82525050565b6000602082019050610cdd6000830184610cb9565b92915050565b600060208284031215610cf957610cf8610a22565b5b6000610d0784828501610bf1565b91505092915050565b600081519050919050565b600082825260208201905092915050565b6000819050602082019050919050565b610d4581610a4c565b82525050565b6000610d578383610d3c565b60208301905092915050565b6000602082019050919050565b6000610d7b82610d10565b610d858185610d1b565b9350610d9083610d2c565b8060005b83811015610dc1578151610da88882610d4b565b9750610db383610d63565b925050600181019050610d94565b5085935050505092915050565b600081519050919050565b600082825260208201905092915050565b6000819050602082019050919050565b610e0381610bd0565b82525050565b6000610e158383610dfa565b60208301905092915050565b6000602082019050919050565b6000610e3982610dce565b610e438185610dd9565b9350610e4e83610dea565b8060005b83811015610e7f578151610e668882610e09565b9750610e7183610e21565b925050600181019050610e52565b5085935050505092915050565b60006040820190508181036000830152610ea68185610d70565b90508181036020830152610eba8184610e2e565b90509392505050565b600081519050919050565b600082825260208201905092915050565b6000819050602082019050919050565b600081519050919050565b600082825260208201905092915050565b60005b83811015610f29578082015181840152602081019050610f0e565b60008484015250505050565b6000610f4082610eef565b610f4a8185610efa565b9350610f5a818560208601610f0b565b610f6381610a94565b840191505092915050565b600082825260208201905092915050565b6000610f8a82610d10565b610f948185610f6e565b9350610f9f83610d2c565b8060005b83811015610fd0578151610fb78882610d4b565b9750610fc283610d63565b925050600181019050610fa3565b5085935050505092915050565b600082825260208201905092915050565b6000610ff982610dce565b6110038185610fdd565b935061100e83610dea565b8060005b8381101561103f5781516110268882610e09565b975061103183610e21565b925050600181019050611012565b5085935050505092915050565b6000610100830160008301516110656000860182610d3c565b506020830151848203602086015261107d8282610f35565b915050604083015184820360408601526110978282610f35565b91505060608301516110ac6060860182610dfa565b5060808301516110bf6080860182610dfa565b5060a08301516110d260a0860182610dfa565b5060c083015184820360c08601526110ea8282610f7f565b91505060e083015184820360e08601526111048282610fee565b9150508091505092915050565b600061111d838361104c565b905092915050565b6000602082019050919050565b600061113d82610ec3565b6111478185610ece565b93508360208202850161115985610edf565b8060005b8581101561119557848403895281516111768582611111565b945061118183611125565b925060208a0199505060018101905061115d565b50829750879550505050505092915050565b600060208201905081810360008301526111c18184611132565b905092915050565b6111d281610a4c565b82525050565b600082825260208201905092915050565b60006111f482610eef565b6111fe81856111d8565b935061120e818560208601610f0b565b61121781610a94565b840191505092915050565b600060c08201905061123760008301896111c9565b818103602083015261124981886111e9565b9050818103604083015261125d81876111e9565b905061126c6060830186610cb9565b6112796080830185610cb9565b61128660a0830184610cb9565b979650505050505050565b7f54686520646561646c696e652073686f756c6420626520696e2074686520667560008201527f747572652e000000000000000000000000000000000000000000000000000000602082015250565b60006112ed6025836111d8565b91506112f882611291565b604082019050919050565b6000602082019050818103600083015261131c816112e0565b9050919050565b7f4e487b7100000000000000000000000000000000000000000000000000000000600052602260045260246000fd5b6000600282049050600182168061136a57607f821691505b60208210810361137d5761137c611323565b5b50919050565b60008190508160005260206000209050919050565b60006020601f8301049050919050565b600082821b905092915050565b6000600883026113e57fffffffffffffffffffffffffffffffffffffffffffffffffffffffffffffffff826113a8565b6113ef86836113a8565b95508019841693508086168417925050509392505050565b6000819050919050565b600061142c61142761142284610bd0565b611407565b610bd0565b9050919050565b6000819050919050565b61144683611411565b61145a61145282611433565b8484546113b5565b825550505050565b600090565b61146f611462565b61147a81848461143d565b505050565b5b8181101561149e57611493600082611467565b600181019050611480565b5050565b601f8211156114e3576114b481611383565b6114bd84611398565b810160208510156114cc578190505b6114e06114d885611398565b83018261147f565b50505b505050565b600082821c905092915050565b6000611506600019846008026114e8565b1980831691505092915050565b600061151f83836114f5565b9150826002028217905092915050565b61153882610eef565b67ffffffffffffffff81111561155157611550610aa5565b5b61155b8254611352565b6115668282856114a2565b600060209050601f8311600181146115995760008415611587578287015190505b6115918582611513565b8655506115f9565b601f1984166115a786611383565b60005b828110156115cf578489015182556001820191506020850194506020810190506115aa565b868310156115ec57848901516115e8601f8916826114f5565b8355505b6001600288020188555050505b505050505050565b7f4e487b7100000000000000000000000000000000000000000000000000000000600052601160045260246000fd5b600061163b82610bd0565b91507fffffffffffffffffffffffffffffffffffffffffffffffffffffffffffffffff820361166d5761166c611601565b5b600182019050919050565b600061168382610bd0565b915061168e83610bd0565b92508282039050818111156116a6576116a5611601565b5b92915050565b600081905092915050565b50565b60006116c76000836116ac565b91506116d2826116b7565b600082019050919050565b60006116e8826116ba565b9150819050919050565b60006116fd82610bd0565b915061170883610bd0565b92508282019050808211156117205761171f611601565b5b92915050565b7f4e487b7100000000000000000000000000000000000000000000000000000000600052603260045260246000fdfea26469706673582212202e41451b3d6a8505bdd0c9765f86cd68c3f5541fc7377770288464b324516bca64736f6c634300081b0033",
  "linkReferences": {},
  "deployedLinkReferences": {}
}